:020000020000FC
:100000000FE50DBF08E00EBF0CE010E010BD09B910
:10001000599A08E10AB90EE800BD0FEF0ABB00E0EB
:1000200004BB0FE007BB10E020E000E00BBBDC9A54
:1000300010FD02C0999B7CC34F938F939F934AE01E
:1000400083EC99E00197F1F74A95D1F79F918F9151
:100050004F915F9BECCF2CB1213409F0E8CF10E039
:100060004F938F939F9344E683EC99E00197F1F7C8
:100070004A95D1F79F918F914F91EEE9F8E0059164
:10008000003021F05D9BFECF0CB9F9CF0000DC9A67
:10009000DB9ADA9A4F938F939F934AE083EC99E02F
:1000A0000197F1F74A95D1F79F918F914F9110E009
:1000B000C0E6D0E020E0288330E001E008BB00008B
:1000C000B49B05C07AD021E0219628833395B59B57
:1000D00005C073D022E0219628833395B69B05C0D6
:1000E0006CD023E0219628833395B79B05C065D05B
:1000F00021E421962883339502E008BB0000B49BDD
:1001000005C05BD024E0219628833395B59B05C0BC
:1001100054D025E0219628833395B69B05C04DD059
:1001200026E0219628833395B79B05C046D022E46C
:1001300021962883339504E008BB0000B49B05C0DA
:100140003CD027E0219628833395B59B05C035D058
:1001500028E0219628833395B69B05C02ED029E050
:10016000219628833395B79B02C027D035C008E07D
:1001700008BB0000B49B05C020D02AE2219628834A
:100180003395B59B05C019D020E02196288333957F
:10019000B69B02C012D01DC0B79B05C00ED024E490
:1001A000219628833395999B65C05F9B86CF1CB1B0
:1001B000123409F082CF11E05DC0D99A06B304FD74
:1001C000FCCF05FDFACF06FDF8CF07FDF6CFD99895
:1001D0000895343009F446C04F938F939F9346E9B6
:1001E00083EC99E00197F1F74A95D1F79F918F91B0
:1001F0004F91D99A4F938F939F9342E383EC99E069
:100200000197F1F74A95D1F79F918F914F91D99826
:100210004F938F939F9342E383EC99E00197F1F71B
:100220004A95D1F79F918F914F91D99A4F938F9380
:100230009F9342E383EC99E00197F1F74A95D1F758
:100240009F918F914F91D9984F938F939F9342E3B2
:1002500083EC99E00197F1F74A95D1F79F918F913F
:100260004F9126CF0000219600004A915A916A9141
:100270007A91000010FDBEC2999B5AC200004F93B4
:100280008F939F9348EC83EC99E00197F1F74A959F
:10029000D1F79F918F914F91D99A4F938F939F93BD
:1002A0004FE083EC99E00197F1F74A95D1F79F91E0
:1002B0008F914F91D9984F938F939F934FE083ECF9
:1002C00099E00197F1F74A95D1F79F918F914F915E
:1002D000D99A4F938F939F934FE083EC99E00197C6
:1002E000F1F74A95D1F79F918F914F91D9984F93FC
:1002F0008F939F934FE083EC99E00197F1F74A9534
:10030000D1F79F918F914F91713041F4623031F468
:10031000533021F4443011F4189401C09894000033
:1003200029F1753041F4663031F4573021F448300A
:1003300011F4189401C09894000019F1713041F43F
:10034000643031F4573021F4483011F4189401C06E
:100350009894000009F1E8E3F8E00591003021F0FD
:100360005D9BFECF0CB9F9CF000021C0E8E4F8E0B6
:100370000591003021F05D9BFECF0CB9F9CF000054
:1003800016C0E0E5F8E00591003021F05D9BFECF5E
:100390000CB9F9CF00000BC0E6E5F8E0059100309C
:1003A00021F05D9BFECF0CB9F9CF000000C0EAE65A
:1003B000F8E00591003021F05D9BFECF0CB9F9CF3C
:1003C000000008E00BBB5F9BFECF0CB1013309F4CA
:1003D000A4C0023309F401C050C04F938F939F9380
:1003E00042E383EC99E00197F1F74A95D1F79F91A9
:1003F0008F914F9113E002E10BBB4F938F939F932B
:100400004CE383EC99E00197F1F74A95D1F79F917E
:100410008F914F9100E00BBB4F938F939F934CE3D1
:1004200083EC99E00197F1F74A95D1F79F918F916D
:100430004F911A9501F74F938F939F934AEF83EC57
:1004400099E00197F1F74A95D1F79F918F914F91DC
:10045000E0E5F9E00591003021F05D9BFECF0CB99D
:10046000F9CF0000E6E7F9E00591003021F05D9B4F
:10047000FECF0CB9F9CF0000D7CD4F938F939F9348
:1004800042E383EC99E00197F1F74A95D1F79F9108
:100490008F914F911CE002E10BBB4F938F939F9381
:1004A0004FE083EC99E00197F1F74A95D1F79F91DE
:1004B0008F914F9100E00BBB4F938F939F934FE031
:1004C00083EC99E00197F1F74A95D1F79F918F91CD
:1004D0004F911A9501F74F938F939F934AEF83ECB7
:1004E00099E00197F1F74A95D1F79F918F914F913C
:1004F000EEE3F9E00591003021F05D9BFECF0CB9F1
:10050000F9CF0000E6E7F9E00591003021F05D9BAE
:10051000FECF0CB9F9CF000087CD4F938F939F93F7
:1005200042E383EC99E00197F1F74A95D1F79F9167
:100530008F914F91E8EEF8E00591003021F05D9B3E
:10054000FECF0CB9F9CF00004F938F939F934AE0F1
:1005500083EC99E00197F1F74A95D1F79F918F913C
:100560004F915F9BFECF0CB15F9BFECF1CB15F9B99
:10057000FECF2CB15F9BFECF3CB1003339F410337A
:1005800029F4203319F4303309F450C04F938F937A
:100590009F9344E683EC99E00197F1F74A95D1F7F0
:1005A0009F918F914F91E8E2F9E00591003021F0A1
:1005B0005D9BFECF0CB9F9CF00001CE002E10BBB44
:1005C0004F938F939F934FE083EC99E00197F1F75E
:1005D0004A95D1F79F918F914F9100E00BBB4F93BC
:1005E0008F939F934FE083EC99E00197F1F74A9541
:1005F000D1F79F918F914F911A9501F74F938F9358
:100600009F9344E683EC99E00197F1F74A95D1F77F
:100610009F918F914F91E6E7F9E00591003021F02D
:100620005D9BFECF0CB9F9CF0000FECC4F938F93AA
:100630009F9342E383EC99E00197F1F74A95D1F754
:100640009F918F914F9106E00BBB4F938F939F9398
:1006500040E583EC99E00197F1F74A95D1F79F9136
:100660008F914F91D9984F938F939F9348EC83EC40
:1006700099E00197F1F74A95D1F79F918F914F91AA
:10068000D89A4F938F939F9342E383EC99E001971D
:10069000F1F74A95D1F79F918F914F91D8984F9349
:1006A0008F939F9344E683EC99E00197F1F74A9585
:1006B000D1F79F918F914F91E2E0F9E005910030E1
:1006C00021F05D9BFECF0CB9F9CF0000989BFECFC7
:1006D0004F938F939F934AE083EC99E00197F1F752
:1006E0004A95D1F79F918F914F91E6E1F9E00591FD
:1006F000003021F05D9BFECF0CB9F9CF0000DA98F5
:100700004F938F939F934AEF83EC99E00197F1F712
:100710004A95D1F79F918F914F91E6E7F9E00591C6
:10072000003021F05D9BFECF0CB9F9CF00007CCCEE
:1007300020E0EEEBF8E00591003021F05D9BFECF6C
:100740000CB9F9CF000014E10EE10BBB4F938F936E
:100750009F934FE083EC99E00197F1F74A95D1F729
:100760009F918F914F9100E00BBB4F938F939F937D
:100770004FE083EC99E00197F1F74A95D1F79F910B
:100780008F914F911A9501F74F938F939F934AE062
:1007900083EC99E00197F1F74A95D1F79F918F91FA
:1007A0004F915F9BC5CF2CB1223409F0C1CF11E02E
:1007B0004F938F939F9346E983EC99E00197F1F76C
:1007C0004A95D1F79F918F914F91E4E6F9E0059119
:1007D000003021F05D9BFECF0CB9F9CF0000E6E7B9
:1007E000F9E00591003021F05D9BFECF0CB9F9CF07
:1007F00000001ACC4F938F939F9342E383EC99E0D0
:100800000197F1F74A95D1F79F918F914F91E4E6C7
:10081000F9E00591003021F05D9BFECF0CB9F9CFD6
:100820000000E6E7F9E00591003021F05D9BFECF86
:100830000CB9F9CF0000F8CB0A556E6B6E6F776E6E
:1008400020706572736F6E000A41686D65642000E8
:100850000A47656D79000A53617261000A446F337B
:10086000613220000A41796120002069732074728E
:1008700079696E6720746F206F70656E207468658B
:10088000206B68617A6E610A0A7768617420736808
:100890006F756C64206920646F3F210A0A000A6545
:1008A0006C6B68617A6E61206761687A61206C6C3C
:1008B00073686F33276C2E2E2E2E2E210A000A65A8
:1008C0006C6B68617A6E6120662035617474616159
:1008D000616161616161616161616161722E2E2E90
:1008E0002E21212121210A000A656E74657220746F
:1008F00068652070617373776F72642E2E2E2E21BF
:100900000A000A656C6B68617A6E612065746661C5
:10091000743765200A000A656C6B68617A6E612025
:10092000657432666C740A000A57726F6E672070C5
:10093000617373776F72642E2E2121210A000A449D
:100940006F6E6520616C61726D65642E2E210A00E8
:100950000A446F6E652072656A65637465642E2E45
:1009600021200A000A446F6E652073746F706564FD
:100970002E2E21200A000A576F756C6420796F753E
:10098000206C696B6520746F2073746172742061D0
:100990006761696E203F2E2E0A7072657373207333
:0C09A000746172742E2E2E2E2E210A007F
:00000001FF
