:020000020000FC
:100000000FE50DBF08E00EBF0CE010E010BD09B910
:10001000599A08E10AB90EE800BD0FEF04BB8F98AA
:1000200000E004BB0FE007BBAC9A879BFDCF4F936A
:100030008F939F9348E283EC99E00197F1F74A95FB
:10004000D1F79F918F914F91E4EDF7E0059100304A
:1000500021F05D9BFECF0CB9F9CF0000AC9AAB9AB2
:10006000AA9A4F938F939F934AE083EC99E001976C
:10007000F1F74A95D1F79F918F914F91C0E6D0E06B
:1000800020E0288330E001E008BB0000B49B05C0FD
:1000900071D021E0219628833395B59B05C06AD0A5
:1000A00022E0219628833395B69B05C063D023E0D8
:1000B000219628833395B79B05C05CD021E4219617
:1000C0002883339502E008BB0000B49B05C052D0E2
:1000D00024E0219628833395B59B05C04BD025E0BD
:1000E000219628833395B69B05C044D026E02196FF
:1000F00028833395B79B05C03DD022E42196288301
:10010000339504E008BB0000B49B05C033D027E062
:10011000219628833395B59B05C02CD028E02196E5
:1001200028833395B69B05C025D029E021962883E6
:100130003395B79B02C01ED0A1CF08E008BB0000DA
:10014000B49B05C017D02AE2219628833395B59B2E
:1001500005C010D020E0219628833395B69B02C0BD
:1001600009D016C0B79B8FCF05D024E421962883F1
:10017000339589CF02E005BB06B304FDFBCF05FD37
:10018000F9CF06FDF7CF07FDF5CF00E005BB0895D9
:10019000343009F44AD04F938F939F9342E383EC1A
:1001A00099E00197F1F74A95D1F79F918F914F917F
:1001B00002E005BB4F938F939F9342E383EC99E05A
:1001C0000197F1F74A95D1F79F918F914F9100E0F8
:1001D00005BB4F938F939F9342E383EC99E0019784
:1001E000F1F74A95D1F79F918F914F9102E005BBAE
:1001F0004F938F939F9342E383EC99E00197F1F73C
:100200004A95D1F79F918F914F9100E005BB4F9395
:100210008F939F9342E383EC99E00197F1F74A951E
:10022000D1F79F918F914F9129CF00002196000027
:100230004A915A916A917A91000000004F938F93EE
:100240009F9342E383EC99E00197F1F74A95D1F748
:100250009F918F914F9102E005BB4F938F939F9396
:1002600044E183EC99E00197F1F74A95D1F79F912A
:100270008F914F9100E005BB4F938F939F9344E183
:1002800083EC99E00197F1F74A95D1F79F918F910F
:100290004F9102E005BB4F938F939F9344E183EC12
:1002A00099E00197F1F74A95D1F79F918F914F917E
:1002B00000E005BB4F938F939F9344E183EC99E05B
:1002C0000197F1F74A95D1F79F918F914F91713036
:1002D00041F4623031F4533021F4443011F4189475
:1002E00001C09894000029F1753041F4663031F472
:1002F000573021F4483011F4189401C0989400004C
:1003000019F1713041F4643031F4573021F4483040
:1003100011F4189401C09894000009F1EEE6F7E09A
:100320000591003021F05D9BFECF0CB9F9CF0000A4
:1003300021C0EEE7F7E00591003021F05D9BFECF94
:100340000CB9F9CF000016C0E6E8F7E005910030DF
:1003500021F05D9BFECF0CB9F9CF00000BC0ECE89B
:10036000F7E00591003021F05D9BFECF0CB9F9CF8D
:10037000000000C0E0EAF7E00591003021F05D9B4D
:10038000FECF0CB9F9CF000008E005BB5F9BFECFA4
:100390000CB1013309F479C1023309F410C077C0FC
:1003A00005BB4F938F939F9348EC83EC99E00197A3
:1003B000F1F74A95D1F79F918F914F9135CE4F9399
:1003C0008F939F9342E383EC99E00197F1F74A956D
:1003D000D1F79F918F914F9102E105BB4F938F937E
:1003E0009F9346E483EC99E00197F1F74A95D1F7A2
:1003F0009F918F914F9100E005BB4F938F939F93F7
:1004000046E483EC99E00197F1F74A95D1F79F9183
:100410008F914F9102E105BB4F938F939F9346E4D9
:1004200083EC99E00197F1F74A95D1F79F918F916D
:100430004F9100E005BB4F938F939F9346E483EC6D
:1004400099E00197F1F74A95D1F79F918F914F91DC
:1004500002E105BB4F938F939F9346E483EC99E0B1
:100460000197F1F74A95D1F79F918F914F9100E055
:1004700005BB4F938F939F934AEF83EC99E00197CD
:10048000F1F74A95D1F79F918F914F91CDCD4F9331
:100490008F939F9342E383EC99E00197F1F74A959C
:1004A000D1F79F918F914F9102E105BB4F938F93AD
:1004B0009F9344E183EC99E00197F1F74A95D1F7D6
:1004C0009F918F914F9100E005BB4F938F939F9326
:1004D00044E183EC99E00197F1F74A95D1F79F91B8
:1004E0008F914F9102E105BB4F938F939F9344E10E
:1004F00083EC99E00197F1F74A95D1F79F918F919D
:100500004F9100E005BB4F938F939F9344E183ECA1
:1005100099E00197F1F74A95D1F79F918F914F910B
:1005200002E105BB4F938F939F9344E183EC99E0E5
:100530000197F1F74A95D1F79F918F914F9100E084
:1005400005BB4F938F939F9344E183EC99E0019710
:10055000F1F74A95D1F79F918F914F9102E105BB39
:100560004F938F939F9344E183EC99E00197F1F7C8
:100570004A95D1F79F918F914F9100E005BB4F9322
:100580008F939F9344E183EC99E00197F1F74A95AB
:10059000D1F79F918F914F9102E105BB4F938F93BC
:1005A0009F9344E183EC99E00197F1F74A95D1F7E5
:1005B0009F918F914F9100E005BB4F938F939F9335
:1005C00044E183EC99E00197F1F74A95D1F79F91C7
:1005D0008F914F9102E105BB4F938F939F9344E11D
:1005E00083EC99E00197F1F74A95D1F79F918F91AC
:1005F0004F9100E005BB4F938F939F9344E183ECB1
:1006000099E00197F1F74A95D1F79F918F914F911A
:1006100002E105BB4F938F939F9344E183EC99E0F4
:100620000197F1F74A95D1F79F918F914F9100E093
:1006300005BB4F938F939F9344E183EC99E001971F
:10064000F1F74A95D1F79F918F914F9102E105BB48
:100650004F938F939F9344E183EC99E00197F1F7D7
:100660004A95D1F79F918F914F9100E005BB4F9331
:100670008F939F934AEF83EC99E00197F1F74A95A6
:10068000D1F79F918F914F91CFCC4F938F939F93A1
:1006900042E383EC99E00197F1F74A95D1F79F91F6
:1006A0008F914F91EEE1F8E00591003021F05D9BD4
:1006B000FECF0CB9F9CF00004F938F939F934AE080
:1006C00083EC99E00197F1F74A95D1F79F918F91CB
:1006D0004F915F9BFECF0CB15F9BFECF1CB15F9B28
:1006E000FECF2CB15F9BFECF3CB10033F9F5103348
:1006F000E9F52033D9F53033C9F54F938F939F93A4
:1007000044E183EC99E00197F1F74A95D1F79F9185
:100710008F914F9106E005BB4F938F939F9340E5D8
:1007200083EC99E00197F1F74A95D1F79F918F916A
:100730004F91A998A89A4F938F939F934AEF83EC78
:1007400099E00197F1F74A95D1F79F918F914F91D9
:100750004F938F939F934AEF83EC99E00197F1F7C2
:100760004A95D1F79F918F914F915ECC90CE0D55C8
:100770006E6B6E6F776E20706572736F6E000D61B9
:10078000686D656420000D67656D79000D73617299
:1007900061000D646F33613220000D6179612000CA
:1007A00020697320747279696E6720746F206F708E
:1007B000656E20746865206B68617A6E610D0D77D7
:1007C0006861742073686F756C64206920646F3F82
:1007D000210D0D000D656C6B68617A6E612067619B
:1007E000687A61206C6C73686F33276C2E2E2E2E06
:1007F0002E210D000D656C6B68617A6E612066209C
:1008000035617474616161616161616161616161DE
:100810006161722E2E2E2E21212121210D000D65C8
:100820006E746572207468652070617373776F727F
:10083000642E2E2E2E210D000D656C6B68617A6E74
:10084000612065746661743765200D000D656C6B01
:0E08500068617A6E6120657432666C740D000A
:00000001FF
