:020000020000FC
:100000000FE50DBF08E00EBF0CE010E010BD09B910
:10001000599A08E10AB90EE800BD0FEF04BB00E0F1
:100020000ABB0FE007BB00E004BBAC9ACF9BFDCF3F
:10003000E2ECF6E00591003021F05D9BFECF0CB9BB
:10004000F9CF0000AC9AAB9AAA9A4F938F939F93E3
:100050004AE083EC99E00197F1F74A95D1F79F9137
:100060008F914F91C0E6D0E020E0288330E001E09E
:1000700008BB0000B49B05C073D021E02196288303
:100080003395B59B05C06CD022E02196288333952B
:10009000B69B05C065D023E0219628833395B79B96
:1000A00005C05ED021E421962883339502E008BB89
:1000B0000000B49B05C054D024E0219628833395DA
:1000C000B59B05C04DD025E0219628833395B69B7E
:1000D00005C046D026E0219628833395B79B05C0FE
:1000E0003FD022E421962883339504E008BB00002A
:1000F000B49B05C035D027E0219628833395B59B66
:1001000005C02ED028E0219628833395B69B05C0E4
:1001100027D029E0219628833395B79B02C020D0B1
:1001200030C008E008BB0000B49B05C019D02AE22B
:10013000219628833395B59B05C012D020E02196E7
:1001400028833395B69B02C00BD018C0B79B05C05F
:1001500007D024E4219628833395C89B64C087CFB9
:1001600002E005BB06B304FDFBCF05FDF9CF06FD9C
:10017000F7CF07FDF5CF00E005BB0895343009F453
:100180004AC04F938F939F9342E383EC99E001978A
:10019000F1F74A95D1F79F918F914F9102E005BBFE
:1001A0004F938F939F9342E383EC99E00197F1F78C
:1001B0004A95D1F79F918F914F9100E005BB4F93E6
:1001C0008F939F9342E383EC99E00197F1F74A956F
:1001D000D1F79F918F914F9102E005BB4F938F9381
:1001E0009F9342E383EC99E00197F1F74A95D1F7A9
:1001F0009F918F914F9100E005BB4F938F939F93F9
:1002000042E383EC99E00197F1F74A95D1F79F918A
:100210008F914F9127CF0000219600004A915A916B
:100220006A917A910000C89BDCC100004F938F93C4
:100230009F9342E383EC99E00197F1F74A95D1F758
:100240009F918F914F9102E005BB4F938F939F93A6
:1002500044E183EC99E00197F1F74A95D1F79F913A
:100260008F914F9100E005BB4F938F939F9344E193
:1002700083EC99E00197F1F74A95D1F79F918F911F
:100280004F9102E005BB4F938F939F9344E183EC22
:1002900099E00197F1F74A95D1F79F918F914F918E
:1002A00000E005BB4F938F939F9344E183EC99E06B
:1002B0000197F1F74A95D1F79F918F914F91713046
:1002C00041F4623031F4533021F4443011F4189485
:1002D00001C09894000029F1753041F4663031F482
:1002E000573021F4483011F4189401C0989400005C
:1002F00019F1713041F4643031F4573021F4483051
:1003000011F4189401C09894000009F1ECE5F6E0AE
:100310000591003021F05D9BFECF0CB9F9CF0000B4
:1003200021C0ECE6F6E00591003021F05D9BFECFA8
:100330000CB9F9CF000016C0E4E7F6E005910030F3
:1003400021F05D9BFECF0CB9F9CF00000BC0EAE7AE
:10035000F6E00591003021F05D9BFECF0CB9F9CF9E
:10036000000000C0EEE8F6E00591003021F05D9B52
:10037000FECF0CB9F9CF000008E005BB5F9BFECFB4
:100380000CB1013309F47CC0023309F401C03CC054
:100390004F938F939F9342E383EC99E00197F1F79A
:1003A0004A95D1F79F918F914F9113E002E105BBE0
:1003B0004F938F939F9346E483EC99E00197F1F775
:1003C0004A95D1F79F918F914F9100E005BB4F93D4
:1003D0008F939F9346E483EC99E00197F1F74A9558
:1003E000D1F79F918F914F911A9501F74F938F936A
:1003F0009F934AEF83EC99E00197F1F74A95D1F783
:100400009F918F914F910FCE4F938F939F9342E384
:1004100083EC99E00197F1F74A95D1F79F918F917D
:100420004F9118E002E105BB4F938F939F9344E1F6
:1004300083EC99E00197F1F74A95D1F79F918F915D
:100440004F9100E005BB4F938F939F9344E183EC62
:1004500099E00197F1F74A95D1F79F918F914F91CC
:100460001A9501F74F938F939F934AEF83EC99E08E
:100470000197F1F74A95D1F79F918F914F91D3CD85
:100480004F938F939F9342E383EC99E00197F1F7A9
:100490004A95D1F79F918F914F91ECE0F7E005914C
:1004A000003021F05D9BFECF0CB9F9CF00004F93D7
:1004B0008F939F934AE083EC99E00197F1F74A9577
:1004C000D1F79F918F914F915F9BFECF0CB15F9BB6
:1004D000FECF1CB15F9BFECF2CB15F9BFECF3CB12A
:1004E000003331F4103321F4203311F4303309F0A8
:1004F0008BCF4F938F939F9344E183EC99E00197C7
:10050000F1F74A95D1F79F918F914F9106E005BB86
:100510004F938F939F9340E583EC99E00197F1F718
:100520004A95D1F79F918F914F91A998A89A4F938F
:100530008F939F9342E383EC99E00197F1F74A95FB
:10054000D1F79F918F914F91A8984F938F939F933D
:1005500044E683EC99E00197F1F74A95D1F79F9132
:100560008F914F91E6E2F7E00591003021F05D9B1D
:10057000FECF0CB9F9CF0000C99BFECF4F938F93EC
:100580009F934AE083EC99E00197F1F74A95D1F700
:100590009F918F914F91EAE3F7E00591003021F0B0
:1005A0005D9BFECF0CB9F9CF0000AA984F938F93B3
:1005B0009F934AEF83EC99E00197F1F74A95D1F7C1
:1005C0009F918F914F914F938F939F934AEF83EC1D
:1005D00099E00197F1F74A95D1F79F918F914F914B
:1005E00022CDE2EEF6E00591003021F05D9BFECFDA
:1005F0000CB9F9CF00001AE00EE105BB4F938F93C1
:100600009F9344E183EC99E00197F1F74A95D1F784
:100610009F918F914F9100E005BB4F938F939F93D4
:1006200044E183EC99E00197F1F74A95D1F79F9166
:100630008F914F911A9501F72CB1213409F0D1CF48
:100640004F938F939F934AEF83EC99E00197F1F7D3
:100650004A95D1F79F918F914F91E5CC0D556E6BD7
:100660006E6F776E20706572736F6E000D61686DCE
:10067000656420000D67656D79000D73617261001E
:100680000D646F33613220000D61796120002069B3
:100690007320747279696E6720746F206F70656E55
:1006A00020746865206B68617A6E610D0D776861F2
:1006B000742073686F756C64206920646F3F210D2E
:1006C0000D000D656C6B68617A6E61206761687AF8
:1006D00061206C6C73686F33276C2E2E2E2E2E21AA
:1006E0000D000D656C6B68617A6E61206620356166
:1006F00074746161616161616161616161616161C4
:10070000722E2E2E2E21212121210D000D656E74B9
:100710006572207468652070617373776F72642EE0
:100720002E2E2E210D000D656C6B68617A6E612096
:1007300065746661743765200D000D656C6B6861CA
:0C0740007A6E6120657432666C740D00E6
:00000001FF
