:020000020000FC
:100000000CE010E010BD09B9599A08E10AB90EE8F0
:1000100000BD0FEF04BB00E005BB01E004BB05BB66
:10002000E0E9F0E00591003021F05D9BFECF0CB9D6
:10003000F9CF00004F938F939F9344E683EC99E0B0
:100040000197F1F74A95D1F79F918F914F915F9B5F
:10005000FECF2CB125BB4F938F939F9344E683EC47
:1000600099E00197F1F74A95D1F79F918F914F91C0
:10007000D4CF656C6B68617A6E61206761687A6164
:10008000206C6C73686F33276C2E2E2E21200D0090
:0600900061686D6564006B
:00000001FF
