:020000020000FC
:1000000007E610E010BD09B908E10AB90EE800BD25
:10001000EEE6F0E00591003021F05D9BFECF0CB9DB
:10002000F9CF00004F938F939F9344E68EE39CE9B2
:100030000197F1F74A95D1F79F918F914F91EAE897
:10004000F0E00591003021F05D9BFECF0CB9F9CFB7
:1000500000004F938F939F9344E68EE39CE90197B2
:10006000F1F74A95D1F79F918F914F91D1CF656C60
:100070006B68617A6E61206761687A61206C6C736D
:10008000686F33276C2E2E2E210061686D65640029
:00000001FF
